{
  "address": "0x2d3d83B06d7f2cb85A86a24F71366D62A39859cC",
  "abi": [
    {
      "inputs": [],
      "stateMutability": "nonpayable",
      "type": "constructor"
    },
    {
      "inputs": [],
      "name": "ArraysLengthMismatch",
      "type": "error"
    },
    {
      "inputs": [],
      "name": "EmptyArrays",
      "type": "error"
    },
    {
      "inputs": [],
      "name": "EnforcedPause",
      "type": "error"
    },
    {
      "inputs": [],
      "name": "EscrowDoesNotExist",
      "type": "error"
    },
    {
      "inputs": [],
      "name": "ExpectedPause",
      "type": "error"
    },
    {
      "inputs": [],
      "name": "FactoryIsPaused",
      "type": "error"
    },
    {
      "inputs": [],
      "name": "InvalidAddress",
      "type": "error"
    },
    {
      "inputs": [
        {
          "internalType": "address",
          "name": "owner",
          "type": "address"
        }
      ],
      "name": "OwnableInvalidOwner",
      "type": "error"
    },
    {
      "inputs": [
        {
          "internalType": "address",
          "name": "account",
          "type": "address"
        }
      ],
      "name": "OwnableUnauthorizedAccount",
      "type": "error"
    },
    {
      "inputs": [],
      "name": "TooManyEscrows",
      "type": "error"
    },
    {
      "anonymous": false,
      "inputs": [
        {
          "indexed": true,
          "internalType": "address",
          "name": "escrowAddress",
          "type": "address"
        },
        {
          "indexed": true,
          "internalType": "address",
          "name": "depositor",
          "type": "address"
        },
        {
          "indexed": true,
          "internalType": "address",
          "name": "beneficiary",
          "type": "address"
        },
        {
          "indexed": false,
          "internalType": "address",
          "name": "arbiter",
          "type": "address"
        },
        {
          "indexed": false,
          "internalType": "uint256",
          "name": "timestamp",
          "type": "uint256"
        }
      ],
      "name": "EscrowCreated",
      "type": "event"
    },
    {
      "anonymous": false,
      "inputs": [
        {
          "indexed": true,
          "internalType": "address",
          "name": "pauser",
          "type": "address"
        }
      ],
      "name": "FactoryPaused",
      "type": "event"
    },
    {
      "anonymous": false,
      "inputs": [
        {
          "indexed": true,
          "internalType": "address",
          "name": "unpauser",
          "type": "address"
        }
      ],
      "name": "FactoryUnpaused",
      "type": "event"
    },
    {
      "anonymous": false,
      "inputs": [
        {
          "indexed": true,
          "internalType": "address",
          "name": "previousOwner",
          "type": "address"
        },
        {
          "indexed": true,
          "internalType": "address",
          "name": "newOwner",
          "type": "address"
        }
      ],
      "name": "OwnershipTransferred",
      "type": "event"
    },
    {
      "anonymous": false,
      "inputs": [
        {
          "indexed": false,
          "internalType": "address",
          "name": "account",
          "type": "address"
        }
      ],
      "name": "Paused",
      "type": "event"
    },
    {
      "anonymous": false,
      "inputs": [
        {
          "indexed": false,
          "internalType": "address",
          "name": "account",
          "type": "address"
        }
      ],
      "name": "Unpaused",
      "type": "event"
    },
    {
      "inputs": [
        {
          "internalType": "address",
          "name": "_beneficiary",
          "type": "address"
        },
        {
          "internalType": "address",
          "name": "_arbiter",
          "type": "address"
        }
      ],
      "name": "createEscrowExternal",
      "outputs": [
        {
          "internalType": "address",
          "name": "escrowAddress",
          "type": "address"
        }
      ],
      "stateMutability": "nonpayable",
      "type": "function"
    },
    {
      "inputs": [
        {
          "internalType": "address[]",
          "name": "_beneficiaries",
          "type": "address[]"
        },
        {
          "internalType": "address[]",
          "name": "_arbiters",
          "type": "address[]"
        }
      ],
      "name": "createMultipleEscrows",
      "outputs": [
        {
          "internalType": "address[]",
          "name": "escrowAddresses",
          "type": "address[]"
        }
      ],
      "stateMutability": "nonpayable",
      "type": "function"
    },
    {
      "inputs": [
        {
          "internalType": "address",
          "name": "",
          "type": "address"
        }
      ],
      "name": "escrowInfo",
      "outputs": [
        {
          "internalType": "address",
          "name": "depositor",
          "type": "address"
        },
        {
          "internalType": "address",
          "name": "beneficiary",
          "type": "address"
        },
        {
          "internalType": "address",
          "name": "arbiter",
          "type": "address"
        },
        {
          "internalType": "uint256",
          "name": "createdAt",
          "type": "uint256"
        },
        {
          "internalType": "bool",
          "name": "exists",
          "type": "bool"
        }
      ],
      "stateMutability": "view",
      "type": "function"
    },
    {
      "inputs": [
        {
          "internalType": "uint256",
          "name": "",
          "type": "uint256"
        }
      ],
      "name": "escrows",
      "outputs": [
        {
          "internalType": "address",
          "name": "",
          "type": "address"
        }
      ],
      "stateMutability": "view",
      "type": "function"
    },
    {
      "inputs": [],
      "name": "getAllEscrows",
      "outputs": [
        {
          "internalType": "address[]",
          "name": "",
          "type": "address[]"
        }
      ],
      "stateMutability": "view",
      "type": "function"
    },
    {
      "inputs": [],
      "name": "getEscrowCount",
      "outputs": [
        {
          "internalType": "uint256",
          "name": "",
          "type": "uint256"
        }
      ],
      "stateMutability": "view",
      "type": "function"
    },
    {
      "inputs": [
        {
          "internalType": "address",
          "name": "_escrow",
          "type": "address"
        }
      ],
      "name": "getEscrowInfo",
      "outputs": [
        {
          "components": [
            {
              "internalType": "address",
              "name": "depositor",
              "type": "address"
            },
            {
              "internalType": "address",
              "name": "beneficiary",
              "type": "address"
            },
            {
              "internalType": "address",
              "name": "arbiter",
              "type": "address"
            },
            {
              "internalType": "uint256",
              "name": "createdAt",
              "type": "uint256"
            },
            {
              "internalType": "bool",
              "name": "exists",
              "type": "bool"
            }
          ],
          "internalType": "struct TrustEscrowFactory.EscrowInfo",
          "name": "",
          "type": "tuple"
        }
      ],
      "stateMutability": "view",
      "type": "function"
    },
    {
      "inputs": [
        {
          "internalType": "uint8",
          "name": "_status",
          "type": "uint8"
        }
      ],
      "name": "getEscrowsByStatus",
      "outputs": [
        {
          "internalType": "address[]",
          "name": "",
          "type": "address[]"
        }
      ],
      "stateMutability": "view",
      "type": "function"
    },
    {
      "inputs": [],
      "name": "getFactoryStats",
      "outputs": [
        {
          "internalType": "uint256",
          "name": "totalEscrows",
          "type": "uint256"
        },
        {
          "internalType": "uint256",
          "name": "totalFunded",
          "type": "uint256"
        },
        {
          "internalType": "uint256",
          "name": "totalReleased",
          "type": "uint256"
        },
        {
          "internalType": "uint256",
          "name": "totalRefunded",
          "type": "uint256"
        }
      ],
      "stateMutability": "view",
      "type": "function"
    },
    {
      "inputs": [
        {
          "internalType": "address",
          "name": "_user",
          "type": "address"
        }
      ],
      "name": "getUserEscrows",
      "outputs": [
        {
          "internalType": "address[]",
          "name": "",
          "type": "address[]"
        }
      ],
      "stateMutability": "view",
      "type": "function"
    },
    {
      "inputs": [
        {
          "internalType": "address",
          "name": "_escrow",
          "type": "address"
        }
      ],
      "name": "isValidEscrow",
      "outputs": [
        {
          "internalType": "bool",
          "name": "",
          "type": "bool"
        }
      ],
      "stateMutability": "view",
      "type": "function"
    },
    {
      "inputs": [],
      "name": "owner",
      "outputs": [
        {
          "internalType": "address",
          "name": "",
          "type": "address"
        }
      ],
      "stateMutability": "view",
      "type": "function"
    },
    {
      "inputs": [],
      "name": "pause",
      "outputs": [],
      "stateMutability": "nonpayable",
      "type": "function"
    },
    {
      "inputs": [],
      "name": "paused",
      "outputs": [
        {
          "internalType": "bool",
          "name": "",
          "type": "bool"
        }
      ],
      "stateMutability": "view",
      "type": "function"
    },
    {
      "inputs": [],
      "name": "renounceOwnership",
      "outputs": [],
      "stateMutability": "nonpayable",
      "type": "function"
    },
    {
      "inputs": [
        {
          "internalType": "address",
          "name": "newOwner",
          "type": "address"
        }
      ],
      "name": "transferOwnership",
      "outputs": [],
      "stateMutability": "nonpayable",
      "type": "function"
    },
    {
      "inputs": [],
      "name": "unpause",
      "outputs": [],
      "stateMutability": "nonpayable",
      "type": "function"
    },
    {
      "inputs": [
        {
          "internalType": "address",
          "name": "",
          "type": "address"
        },
        {
          "internalType": "uint256",
          "name": "",
          "type": "uint256"
        }
      ],
      "name": "userEscrows",
      "outputs": [
        {
          "internalType": "address",
          "name": "",
          "type": "address"
        }
      ],
      "stateMutability": "view",
      "type": "function"
    }
  ],
  "transactionHash": "0x5cb00f0408cc23bbcf9ea0e57c3ecf4975efda47417723e6b52ddfa58b5614ff",
  "args": [],
  "numDeployments": 1,
  "solcInputHash": "7f9cb6d461c90c105b79ec15ccbbe692",
  "bytecode": "0x608060405234801561001057600080fd5b50338061003757604051631e4fbdf760e01b81526000600482015260240160405180910390fd5b61004081610046565b50610096565b600080546001600160a01b038381166001600160a01b0319831681178455604051919092169283917f8be0079c531659141344cd1fd0a4f28419497f9722a3daafe3b4186f6b6457e09190a35050565b6121b7806100a56000396000f3fe60806040523480156200001157600080fd5b50600436106200012d5760003560e01c80637f944dd011620000af5780639a6ac36f116200007a5780639a6ac36f1462000340578063be49d5df146200034a578063c92264451462000361578063cdf53df8146200038c578063f2fde38b14620003a357600080fd5b80637f944dd014620002805780638456cb5914620002975780638da5cb5b14620002a157806390eca5e814620002b357600080fd5b8063502a8a9511620000fc578063502a8a95146200019b5780635c975abb14620001ff5780635ccea85e146200021e578063646ce6b91462000244578063715018a6146200027657600080fd5b8063012f52ee146200013257806316b1513514620001665780633ebb838814620001785780633f4ba83a146200018f575b600080fd5b6200014962000143366004620010ff565b620003ba565b6040516001600160a01b0390911681526020015b60405180910390f35b6001546040519081526020016200015d565b620001496200018936600462001136565b620003e5565b6200019962000404565b005b620001b2620001ac3660046200116e565b62000445565b6040805182516001600160a01b0390811682526020808501518216908301528383015116918101919091526060808301519082015260809182015115159181019190915260a0016200015d565b600054600160a01b900460ff165b60405190151581526020016200015d565b620002356200022f3660046200116e565b6200050d565b6040516200015d91906200118c565b6200020d620002553660046200116e565b6001600160a01b031660009081526003602052604090206004015460ff1690565b6200019962000585565b6200014962000291366004620011db565b6200059d565b62000199620005d6565b6000546001600160a01b031662000149565b62000306620002c43660046200116e565b6003602081905260009182526040909120805460018201546002830154938301546004909301546001600160a01b039283169491831693919092169160ff1685565b604080516001600160a01b039687168152948616602086015292909416918301919091526060820152901515608082015260a0016200015d565b6200023562000617565b620002356200035b36600462001257565b6200067b565b6200036b620007f0565b6040805194855260208501939093529183015260608201526080016200015d565b620002356200039d366004620012ca565b620009bd565b62000199620003b43660046200116e565b62000cae565b60018181548110620003cb57600080fd5b6000918252602090912001546001600160a01b0316905081565b6000620003f162000cf6565b620003fd838362000d22565b9392505050565b6200040e62000faa565b6200041862000fd9565b60405133907f5dd33ddbee1b2bb2cfe2e04a15fcc4e2071c141d15e24d1fe1b5d6b80f355c0c90600090a2565b6040805160a0810182526000808252602080830182905282840182905260608301829052608083018290526001600160a01b038516825260039052919091206004015460ff16620004a957604051636a4d9b7760e01b815260040160405180910390fd5b506001600160a01b03908116600090815260036020818152604092839020835160a0810185528154861681526001820154861692810192909252600281015490941692810192909252820154606082015260049091015460ff161515608082015290565b6001600160a01b0381166000908152600260209081526040918290208054835181840281018401909452808452606093928301828280156200057957602002820191906000526020600020905b81546001600160a01b031681526001909101906020018083116200055a575b50505050509050919050565b6200058f62000faa565b6200059b600062001030565b565b60026020528160005260406000208181548110620005ba57600080fd5b6000918252602090912001546001600160a01b03169150829050565b620005e062000faa565b620005ea62001080565b60405133907ff7ab4f18771ba1e5f8db30e61ceed7bc8096937655edc7b3cae25a61921f4a1e90600090a2565b606060018054806020026020016040519081016040528092919081815260200182805480156200067157602002820191906000526020600020905b81546001600160a01b0316815260019091019060200180831162000652575b5050505050905090565b60606200068762000cf6565b838214620006a8576040516307e11acb60e51b815260040160405180910390fd5b6000849003620006cb5760405163a600c81d60e01b815260040160405180910390fd5b600a841115620006ee57604051630adff7cd60e01b815260040160405180910390fd5b8367ffffffffffffffff8111156200070a576200070a620012ef565b60405190808252806020026020018201604052801562000734578160200160208202803683370190505b50905060005b84811015620007e757620007a58686838181106200075c576200075c62001305565b90506020020160208101906200077391906200116e565b85858481811062000788576200078862001305565b90506020020160208101906200079f91906200116e565b62000d22565b828281518110620007ba57620007ba62001305565b6001600160a01b039092166020928302919091019091015280620007de816200131b565b9150506200073a565b50949350505050565b60015460008080805b600154811015620009b6576000600182815481106200081c576200081c62001305565b6000918252602091829020015460408051637c65430360e01b815290516001600160a01b0390921693508392637c654303926004808401938290030181865afa1580156200086e573d6000803e3d6000fd5b505050506040513d601f19601f8201168201806040525081019062000894919062001343565b15620008aa5784620008a6816200131b565b9550505b806001600160a01b031663fa2a89976040518163ffffffff1660e01b8152600401602060405180830381865afa158015620008e9573d6000803e3d6000fd5b505050506040513d601f19601f820116820180604052508101906200090f919062001343565b1562000925578362000921816200131b565b9450505b806001600160a01b031663779cd0836040518163ffffffff1660e01b8152600401602060405180830381865afa15801562000964573d6000803e3d6000fd5b505050506040513d601f19601f820116820180604052508101906200098a919062001343565b15620009a057826200099c816200131b565b9350505b5080620009ad816200131b565b915050620007f9565b5090919293565b60015460609060009067ffffffffffffffff811115620009e157620009e1620012ef565b60405190808252806020026020018201604052801562000a0b578160200160208202803683370190505b5090506000805b60015481101562000bf75760006001828154811062000a355762000a3562001305565b60009182526020822001546001600160a01b03169150819060ff8816810362000a615750600162000b99565b8760ff1660010362000ada57816001600160a01b0316637c6543036040518163ffffffff1660e01b8152600401602060405180830381865afa15801562000aac573d6000803e3d6000fd5b505050506040513d601f19601f8201168201806040525081019062000ad2919062001343565b905062000b99565b8760ff1660020362000b2557816001600160a01b031663fa2a89976040518163ffffffff1660e01b8152600401602060405180830381865afa15801562000aac573d6000803e3d6000fd5b8760ff1660030362000b9957816001600160a01b031663779cd0836040518163ffffffff1660e01b8152600401602060405180830381865afa15801562000b70573d6000803e3d6000fd5b505050506040513d601f19601f8201168201806040525081019062000b96919062001343565b90505b801562000bde578286868151811062000bb65762000bb662001305565b6001600160a01b03909216602092830291909101909101528462000bda816200131b565b9550505b505050808062000bee906200131b565b91505062000a12565b5060008167ffffffffffffffff81111562000c165762000c16620012ef565b60405190808252806020026020018201604052801562000c40578160200160208202803683370190505b50905060005b82811015620007e75783818151811062000c645762000c6462001305565b602002602001015182828151811062000c815762000c8162001305565b6001600160a01b03909216602092830291909101909101528062000ca5816200131b565b91505062000c46565b62000cb862000faa565b6001600160a01b03811662000ce857604051631e4fbdf760e01b8152600060048201526024015b60405180910390fd5b62000cf38162001030565b50565b600054600160a01b900460ff16156200059b5760405163d93c066560e01b815260040160405180910390fd5b60006001600160a01b03831662000d4c5760405163e6c4247b60e01b815260040160405180910390fd5b6001600160a01b03821662000d745760405163e6c4247b60e01b815260040160405180910390fd5b816001600160a01b0316836001600160a01b03160362000da75760405163e6c4247b60e01b815260040160405180910390fd5b336001600160a01b0384160362000dd15760405163e6c4247b60e01b815260040160405180910390fd5b336001600160a01b0383160362000dfb5760405163e6c4247b60e01b815260040160405180910390fd5b600033848460405162000e0e90620010f1565b6001600160a01b03938416815291831660208301529091166040820152606001604051809103906000f08015801562000e4b573d6000803e3d6000fd5b506040805160a081018252338082526001600160a01b0388811660208085018281528a84168688019081524260608801818152600160808a01818152888d1660008181526003808a528e82209d518e54908d166001600160a01b0319918216178f5598518e86018054918e16918b1691909117905596516002808f01805492909d16918a1691909117909b559351958c0195909555516004909a0180549a151560ff19909b169a909a179099558854808a018a557fb10e2d527612073b26eecdfd717e6a320cf44b4afac2b0732d9fcbe2b7fa0cf60180548516841790558781529584528886208054988901815586529290942090950180549095168317909455935194965086955092939092917f5110acfd33aad02838430d854a830e50cb07377fab40a6e84daeedb1b15136009162000f9b9189916001600160a01b03929092168252602082015260400190565b60405180910390a45092915050565b6000546001600160a01b031633146200059b5760405163118cdaa760e01b815233600482015260240162000cdf565b62000fe3620010c6565b6000805460ff60a01b191690557f5db9ee0a495bf2e6ff9c91a7834c1ba4fdd244a5e8aa4e537bd38aeae4b073aa335b6040516001600160a01b03909116815260200160405180910390a1565b600080546001600160a01b038381166001600160a01b0319831681178455604051919092169283917f8be0079c531659141344cd1fd0a4f28419497f9722a3daafe3b4186f6b6457e09190a35050565b6200108a62000cf6565b6000805460ff60a01b1916600160a01b1790557f62e78cea01bee320cd4e420270b5ea74000d11b0c9f74754ebdbfc544b05a258620010133390565b600054600160a01b900460ff166200059b57604051638dfc202b60e01b815260040160405180910390fd5b610e1a806200136883390190565b6000602082840312156200111257600080fd5b5035919050565b80356001600160a01b03811681146200113157600080fd5b919050565b600080604083850312156200114a57600080fd5b620011558362001119565b9150620011656020840162001119565b90509250929050565b6000602082840312156200118157600080fd5b620003fd8262001119565b6020808252825182820181905260009190848201906040850190845b81811015620011cf5783516001600160a01b031683529284019291840191600101620011a8565b50909695505050505050565b60008060408385031215620011ef57600080fd5b620011fa8362001119565b946020939093013593505050565b60008083601f8401126200121b57600080fd5b50813567ffffffffffffffff8111156200123457600080fd5b6020830191508360208260051b85010111156200125057600080fd5b9250929050565b600080600080604085870312156200126e57600080fd5b843567ffffffffffffffff808211156200128757600080fd5b620012958883890162001208565b90965094506020870135915080821115620012af57600080fd5b50620012be8782880162001208565b95989497509550505050565b600060208284031215620012dd57600080fd5b813560ff81168114620003fd57600080fd5b634e487b7160e01b600052604160045260246000fd5b634e487b7160e01b600052603260045260246000fd5b6000600182016200133c57634e487b7160e01b600052601160045260246000fd5b5060010190565b6000602082840312156200135657600080fd5b81518015158114620003fd57600080fdfe6080604052604051610e1a380380610e1a83398101604081905261002291610252565b6001600055826001600160a01b03811661005657604051631e4fbdf760e01b81526000600482015260240160405180910390fd5b61005f816101dc565b506001600160a01b0383166100875760405163e6c4247b60e01b815260040160405180910390fd5b6001600160a01b0382166100ae5760405163e6c4247b60e01b815260040160405180910390fd5b6001600160a01b0381166100d55760405163e6c4247b60e01b815260040160405180910390fd5b806001600160a01b0316826001600160a01b0316036101075760405163e6c4247b60e01b815260040160405180910390fd5b816001600160a01b0316836001600160a01b0316036101395760405163e6c4247b60e01b815260040160405180910390fd5b806001600160a01b0316836001600160a01b03160361016b5760405163e6c4247b60e01b815260040160405180910390fd5b600280546001600160a01b03199081166001600160a01b03868116918217909355600380548316868516908117909155600480549093169385169384179092556040517f4743c0c2884de4f19f280dbd2cc93bc24491cdf876ed107046fe8194183c09e990600090a4505050610295565b600180546001600160a01b03838116610100818102610100600160a81b031985161790945560405193909204169182907f8be0079c531659141344cd1fd0a4f28419497f9722a3daafe3b4186f6b6457e090600090a35050565b80516001600160a01b038116811461024d57600080fd5b919050565b60008060006060848603121561026757600080fd5b61027084610236565b925061027e60208501610236565b915061028c60408501610236565b90509250925092565b610b76806102a46000396000f3fe60806040526004361061010d5760003560e01c806386d1a69f11610095578063d0e30db011610064578063d0e30db0146103c5578063db2e21bc146103cd578063f2fde38b146103e2578063fa2a899714610402578063fe25e00a146104215761019d565b806386d1a69f146103495780638da5cb5b1461035e578063aa8c217c14610381578063c7c4ff46146103a55761019d565b80636234216d116100dc5780636234216d1461026a578063715018a6146102e5578063779cd083146102fa5780637c6543031461031a5780638456cb59146103345761019d565b806338af3eed146101df5780633f4ba83a1461021c578063590e1ae3146102315780635c975abb146102465761019d565b3661019d576002546001600160a01b0316331461013d5760405163a3825a4360e01b815260040160405180910390fd5b60065460ff1661019b573460058190556006805460ff191660011790556002546040519182526001600160a01b0316907f2da466a7b24304f47e87fa2e1e5a81b9831ce54fec19055ce277ca2f39ba42c49060200160405180910390a25b005b60405162461bcd60e51b8152602060048201526012602482015271119d5b98dd1a5bdb881b9bdd08199bdd5b9960721b60448201526064015b60405180910390fd5b3480156101eb57600080fd5b506003546101ff906001600160a01b031681565b6040516001600160a01b0390911681526020015b60405180910390f35b34801561022857600080fd5b5061019b610441565b34801561023d57600080fd5b5061019b610453565b34801561025257600080fd5b5060015460ff165b6040519015158152602001610213565b34801561027657600080fd5b50600254600354600454600554600654604080516001600160a01b03968716815294861660208601529490921693830193909352606082019290925260ff8083161515608083015261010083048116151560a083015262010000909204909116151560c082015260e001610213565b3480156102f157600080fd5b5061019b6105f4565b34801561030657600080fd5b5060065461025a9062010000900460ff1681565b34801561032657600080fd5b5060065461025a9060ff1681565b34801561034057600080fd5b5061019b610606565b34801561035557600080fd5b5061019b610616565b34801561036a57600080fd5b5060015461010090046001600160a01b03166101ff565b34801561038d57600080fd5b5061039760055481565b604051908152602001610213565b3480156103b157600080fd5b506002546101ff906001600160a01b031681565b61019b6107b0565b3480156103d957600080fd5b5061019b61088d565b3480156103ee57600080fd5b5061019b6103fd366004610b10565b61094a565b34801561040e57600080fd5b5060065461025a90610100900460ff1681565b34801561042d57600080fd5b506004546101ff906001600160a01b031681565b610449610985565b6104516109b8565b565b6004546001600160a01b0316331461047e576040516372cc71e760e11b815260040160405180910390fd5b60065460ff166104a157604051636af784dd60e11b815260040160405180910390fd5b600654610100900460ff16806104bf575060065462010000900460ff165b156104dd576040516331da482760e11b815260040160405180910390fd5b6104e5610a0a565b6104ed610a2e565b6006805462ff00001916620100001790556002546005546040516000926001600160a01b031691908381818185875af1925050503d806000811461054d576040519150601f19603f3d011682016040523d82523d6000602084013e610552565b606091505b50509050806105a35760405162461bcd60e51b815260206004820152601f60248201527f4661696c656420746f2073656e642045544820746f206465706f7369746f720060448201526064016101d6565b6002546005546040519081526001600160a01b03909116907fd7dee2702d63ad89917b6a4da9981c90c4d24f8c2bdfd64c604ecae57d8d0651906020015b60405180910390a2506104516001600055565b6105fc610985565b6104516000610a58565b61060e610985565b610451610ab2565b6004546001600160a01b03163314610641576040516372cc71e760e11b815260040160405180910390fd5b60065460ff1661066457604051636af784dd60e11b815260040160405180910390fd5b600654610100900460ff1680610682575060065462010000900460ff165b156106a0576040516331da482760e11b815260040160405180910390fd5b6106a8610a0a565b6106b0610a2e565b6006805461ff0019166101001790556003546005546040516000926001600160a01b031691908381818185875af1925050503d806000811461070e576040519150601f19603f3d011682016040523d82523d6000602084013e610713565b606091505b505090508061076e5760405162461bcd60e51b815260206004820152602160248201527f4661696c656420746f2073656e642045544820746f2062656e656669636961726044820152607960f81b60648201526084016101d6565b6003546005546040519081526001600160a01b03909116907fb21fb52d5749b80f3182f8c6992236b5e5576681880914484d7f4c9b062e619e906020016105e1565b6002546001600160a01b031633146107db576040516319d1820960e31b815260040160405180910390fd5b60065460ff16156107ff57604051635adf638760e01b815260040160405180910390fd5b610807610a0a565b61080f610a2e565b346000036108305760405163162908e360e11b815260040160405180910390fd5b3460058190556006805460ff191660011790556002546040519182526001600160a01b0316907f2da466a7b24304f47e87fa2e1e5a81b9831ce54fec19055ce277ca2f39ba42c49060200160405180910390a26104516001600055565b610895610985565b61089d610aed565b4780156109475760015460405160009161010090046001600160a01b03169083908381818185875af1925050503d80600081146108f6576040519150601f19603f3d011682016040523d82523d6000602084013e6108fb565b606091505b50509050806109455760405162461bcd60e51b815260206004820152601660248201527508cc2d2d8cac840e8de40eed2e8d0c8e4c2ee408aa8960531b60448201526064016101d6565b505b50565b610952610985565b6001600160a01b03811661097c57604051631e4fbdf760e01b8152600060048201526024016101d6565b61094781610a58565b6001546001600160a01b036101009091041633146104515760405163118cdaa760e01b81523360048201526024016101d6565b6109c0610aed565b6001805460ff191690557f5db9ee0a495bf2e6ff9c91a7834c1ba4fdd244a5e8aa4e537bd38aeae4b073aa335b6040516001600160a01b03909116815260200160405180910390a1565b60015460ff16156104515760405163d93c066560e01b815260040160405180910390fd5b600260005403610a5157604051633ee5aeb560e01b815260040160405180910390fd5b6002600055565b600180546001600160a01b03838116610100818102610100600160a81b031985161790945560405193909204169182907f8be0079c531659141344cd1fd0a4f28419497f9722a3daafe3b4186f6b6457e090600090a35050565b610aba610a0a565b6001805460ff1916811790557f62e78cea01bee320cd4e420270b5ea74000d11b0c9f74754ebdbfc544b05a258336109ed565b60015460ff1661045157604051638dfc202b60e01b815260040160405180910390fd5b600060208284031215610b2257600080fd5b81356001600160a01b0381168114610b3957600080fd5b939250505056fea264697066735822122042954eb47a9900113126f462ccda8a5cc1a078bd873bd42e74cded3dccc6080e64736f6c63430008140033a26469706673582212202ab8f3db7100246c1197380bbcb41d1fcd044eba63b287e72c3fe75051fded9d64736f6c63430008140033",
  "devdoc": {
    "author": "Your Name",
    "details": "Factory contract for creating TrustEscrow instances",
    "errors": {
      "EnforcedPause()": [
        {
          "details": "The operation failed because the contract is paused."
        }
      ],
      "ExpectedPause()": [
        {
          "details": "The operation failed because the contract is not paused."
        }
      ],
      "OwnableInvalidOwner(address)": [
        {
          "details": "The owner is not a valid owner account. (eg. `address(0)`)"
        }
      ],
      "OwnableUnauthorizedAccount(address)": [
        {
          "details": "The caller account is not authorized to perform an operation."
        }
      ]
    },
    "events": {
      "Paused(address)": {
        "details": "Emitted when the pause is triggered by `account`."
      },
      "Unpaused(address)": {
        "details": "Emitted when the pause is lifted by `account`."
      }
    },
    "kind": "dev",
    "methods": {
      "constructor": {
        "details": "Constructor sets the factory owner"
      },
      "createEscrowExternal(address,address)": {
        "details": "Create a new escrow contract (external function)",
        "params": {
          "_arbiter": "The address that can release or refund funds",
          "_beneficiary": "The address that will receive funds if released"
        },
        "returns": {
          "escrowAddress": "The address of the newly created escrow"
        }
      },
      "createMultipleEscrows(address[],address[])": {
        "details": "Create multiple escrows in a single transaction",
        "params": {
          "_arbiters": "Array of arbiter addresses",
          "_beneficiaries": "Array of beneficiary addresses"
        },
        "returns": {
          "escrowAddresses": "Array of created escrow addresses"
        }
      },
      "getAllEscrows()": {
        "details": "Get all escrows in the factory",
        "returns": {
          "_0": "Array of all escrow addresses"
        }
      },
      "getEscrowCount()": {
        "details": "Get total number of escrows created",
        "returns": {
          "_0": "Total count of escrows"
        }
      },
      "getEscrowInfo(address)": {
        "details": "Get escrow information by address",
        "params": {
          "_escrow": "The escrow contract address"
        },
        "returns": {
          "_0": "EscrowInfo struct containing escrow details"
        }
      },
      "getEscrowsByStatus(uint8)": {
        "details": "Get escrows by status (funded, released, refunded)",
        "params": {
          "_status": "The status to filter by (0: all, 1: funded, 2: released, 3: refunded)"
        },
        "returns": {
          "_0": "Array of escrow addresses matching the status"
        }
      },
      "getFactoryStats()": {
        "details": "Get factory statistics",
        "returns": {
          "totalEscrows": "Total number of escrows created",
          "totalFunded": "Number of funded escrows",
          "totalRefunded": "Number of refunded escrows",
          "totalReleased": "Number of released escrows"
        }
      },
      "getUserEscrows(address)": {
        "details": "Get all escrows created by a specific user",
        "params": {
          "_user": "The user address"
        },
        "returns": {
          "_0": "Array of escrow addresses"
        }
      },
      "isValidEscrow(address)": {
        "details": "Check if an address is a valid escrow created by this factory",
        "params": {
          "_escrow": "The escrow contract address"
        },
        "returns": {
          "_0": "True if valid escrow, false otherwise"
        }
      },
      "owner()": {
        "details": "Returns the address of the current owner."
      },
      "pause()": {
        "details": "Emergency pause function (only owner)"
      },
      "paused()": {
        "details": "Returns true if the contract is paused, and false otherwise."
      },
      "renounceOwnership()": {
        "details": "Leaves the contract without owner. It will not be possible to call `onlyOwner` functions. Can only be called by the current owner. NOTE: Renouncing ownership will leave the contract without an owner, thereby disabling any functionality that is only available to the owner."
      },
      "transferOwnership(address)": {
        "details": "Transfers ownership of the contract to a new account (`newOwner`). Can only be called by the current owner."
      },
      "unpause()": {
        "details": "Emergency unpause function (only owner)"
      }
    },
    "title": "TrustEscrowFactory",
    "version": 1
  },
  "userdoc": {
    "kind": "user",
    "methods": {},
    "version": 1
  },
  "storageLayout": {
    "storage": [
      {
        "astId": 8,
        "contract": "contracts/TrustEscrowFactory.sol:TrustEscrowFactory",
        "label": "_owner",
        "offset": 0,
        "slot": "0",
        "type": "t_address"
      },
      {
        "astId": 186,
        "contract": "contracts/TrustEscrowFactory.sol:TrustEscrowFactory",
        "label": "_paused",
        "offset": 20,
        "slot": "0",
        "type": "t_bool"
      },
      {
        "astId": 833,
        "contract": "contracts/TrustEscrowFactory.sol:TrustEscrowFactory",
        "label": "escrows",
        "offset": 0,
        "slot": "1",
        "type": "t_array(t_address)dyn_storage"
      },
      {
        "astId": 838,
        "contract": "contracts/TrustEscrowFactory.sol:TrustEscrowFactory",
        "label": "userEscrows",
        "offset": 0,
        "slot": "2",
        "type": "t_mapping(t_address,t_array(t_address)dyn_storage)"
      },
      {
        "astId": 843,
        "contract": "contracts/TrustEscrowFactory.sol:TrustEscrowFactory",
        "label": "escrowInfo",
        "offset": 0,
        "slot": "3",
        "type": "t_mapping(t_address,t_struct(EscrowInfo)874_storage)"
      }
    ],
    "types": {
      "t_address": {
        "encoding": "inplace",
        "label": "address",
        "numberOfBytes": "20"
      },
      "t_array(t_address)dyn_storage": {
        "base": "t_address",
        "encoding": "dynamic_array",
        "label": "address[]",
        "numberOfBytes": "32"
      },
      "t_bool": {
        "encoding": "inplace",
        "label": "bool",
        "numberOfBytes": "1"
      },
      "t_mapping(t_address,t_array(t_address)dyn_storage)": {
        "encoding": "mapping",
        "key": "t_address",
        "label": "mapping(address => address[])",
        "numberOfBytes": "32",
        "value": "t_array(t_address)dyn_storage"
      },
      "t_mapping(t_address,t_struct(EscrowInfo)874_storage)": {
        "encoding": "mapping",
        "key": "t_address",
        "label": "mapping(address => struct TrustEscrowFactory.EscrowInfo)",
        "numberOfBytes": "32",
        "value": "t_struct(EscrowInfo)874_storage"
      },
      "t_struct(EscrowInfo)874_storage": {
        "encoding": "inplace",
        "label": "struct TrustEscrowFactory.EscrowInfo",
        "members": [
          {
            "astId": 865,
            "contract": "contracts/TrustEscrowFactory.sol:TrustEscrowFactory",
            "label": "depositor",
            "offset": 0,
            "slot": "0",
            "type": "t_address"
          },
          {
            "astId": 867,
            "contract": "contracts/TrustEscrowFactory.sol:TrustEscrowFactory",
            "label": "beneficiary",
            "offset": 0,
            "slot": "1",
            "type": "t_address"
          },
          {
            "astId": 869,
            "contract": "contracts/TrustEscrowFactory.sol:TrustEscrowFactory",
            "label": "arbiter",
            "offset": 0,
            "slot": "2",
            "type": "t_address"
          },
          {
            "astId": 871,
            "contract": "contracts/TrustEscrowFactory.sol:TrustEscrowFactory",
            "label": "createdAt",
            "offset": 0,
            "slot": "3",
            "type": "t_uint256"
          },
          {
            "astId": 873,
            "contract": "contracts/TrustEscrowFactory.sol:TrustEscrowFactory",
            "label": "exists",
            "offset": 0,
            "slot": "4",
            "type": "t_bool"
          }
        ],
        "numberOfBytes": "160"
      },
      "t_uint256": {
        "encoding": "inplace",
        "label": "uint256",
        "numberOfBytes": "32"
      }
    }
  }
}